:200000005C400020A582000001CA011001CA011001CA011001CA011001CA011001CA0110D5
:1C00200001CA011001CA011001CA011001CA011001CA011001CA01103FCA011082
:20003C0000008001100082FFFDFF58003AFFBFF3FFFFFFFFFFFFFFFFFFFFFFFFFFFFFFFF63
:20005C00FFFFFFFFFFFFFFFFFFFFFFFFFFFFFFFFFFFFFFC5FFFFFFFFC5FFFFFFC5C5C5FFC6
:18007C00C5C5C5FF00000000FFFFFFFFFFFFFFFFFFFFFFFFFFFFFFFF2E
:200100003C000000000000000000000034010000000000000000000001000000000000006D
:1C01200000000000000000000000000001000000000000000800000000000000BA
:20013C00340000000000000000000000680100000000000000000000010000000000000005
:14015C00010000000000000000000000080000000000000086
:2001700030000000000000000000000098010000040000000000000001000000FFFFFFFFA5
:10019000FF00000001000000080000000000000057
:2001A0002C0000000000000000000000C4010000040000000000000001000000FFFFFFFF4D
:0C01C000FFFFFFFF08000000000000002F
:2001CC0034050000E401000099A1011095A70110A5C2011009B2011045B80110000000000B
:0801EC00000000002E000000DD
:2001F400280000000000000000000000140200000000000000000000FFFFFFFF00000000B1
:080214000800000000000000DA
:20021C00300500003002000069C201106DC101101FC2011095BA011000000000000000008E
:04023C00300000008E
:20024000300500005402000075C20110A9B601109DBF011049B601100000000000000000DE
:040260003100000069
:200264002400000000000000000000008002000000000000000000000000000008000000CC
:040284000000000076
:20028800240000000000000000000000A40200000000000000000000000000000800000084
:0402A8000000000052
:2002AC00240000000000000000000000C8020000000000000100000000000000080000003B
:0402CC00000000002E
:2002D00000000000A818002004000000000000000000000020000000700100003000000069
:2002F0001C020000BC1800200400000000000000000000000C000000300400001800000080
:2003100040020000C8180020040000000000000000000000240000004804000018000000FF
:2003300000000000D018002004000000000000000000000010000000A00100002C000000C4
:20035000CC010000D818002004000000000000000000000020000000640200002400000002
:20037000FFFFFFFFF818002004000000000000000000000028000000880200002400000067
:20039000FFFFFFFF08190020040000000000000000000000580000003C0100003400000043
:2003B000FFFFFFFF1019002004000000000000000000000010000000600400001800000058
:2003D000FFFFFFFF181900200400000000000000000000001C000000AC02000024000000CE
:2003F000FFFFFFFF2019002004000000000000000000000038000000F4010000280000003F
:20041000FFFFFFFF2819002004000000000000000000000054000000000100003C000000DA
:1804300018000000000000000000000040040000080000000000000050
:1804480018000000000000000000000058040000080000000000000020
:18046000180000000000000000000000700400000800000000000000F0
:080478000100000090B5000036
:040484000100000073
:0404880000000C0064
:04048C0000000D005F
:040490003200000036
:040494000200000062
:04049800B02100206F
:04049C00000200005A
:0404A0000000000058
:0404A40001CA011078
:0404A8000000000050
:0404AC00000000004C
:0404B0000800000040
:0404B4000000200024
:0404B800E020002020
:0404BC00010000003B
:0404C000E018002020
:0404C400080000002C
:0404C8000000000030
:0404CC00000000002C
:0404D0000000000028
:0404D4000000000024
:0404D8000000000020
:0404DC00010000001B
:0404E00010220020C6
:0404E400060000000E
:0404E800010000000F
:0404EC0004200020C8
:0404F0000000000008
:0404F4000000000004
:0404F80000020000FE
:0404FC0000000000FC
:020502002A00CD
:020504000100F4
:020506002500CE
:020508003000C1
:02050A003100BE
:02050C002E00BF
:02050E000100EA
:0105100001E9
:080514000300000048B50000DF
:08051C000000000000000000D7
:0405240000000100D2
:0405280000000300CC
:04052C0087C401106F
:04053000380500008A
:040534003805000086
:0405380000000000BF
:04053C00800000003B
:040540008000000037
:0405440000000000B3
:04054800E018002097
:04054C0007A90000FB
:040550002000000087
:0405540004B50000EA
:0405580038B30000B4
:04055C000DC30110BA
:04056000CF65000063
:040564003F6A0000EA
:0405680099C801101D
:04056C009BC8011017
:040570000000000087
:040574006FB500005F
:0405780090B000003F
:04057C00A8B0000023
:0405800078B000004F
:0205840008006D
:0205860009006A
:02058800010070
:02058A0000006F
:01058C00016D
:040590000000000067
:040594000000000063
:04059800000000005F
:04059C00000000005B
:0405A00091A6000020
:0405A40001870000CB
:0405A800B99E0000F8
:0405AC00B583000013
:0405B000196E0000C0
:0405B4007D91000035
:0405B8006D59000079
:0405BC0049A2000050
:0405C000257300009F
:0405C40011C8011049
:0405C80021C8011035
:0405CC000800000023
:0405D0002400000003
:0405D400180000000B
:0405D80028000000F7
:0405DC0020000000FB
:0405E0003C000000DB
:0405E4000C00000007
:0405E80034000000DB
:2005EC002DE9F04FADF1740D05F096FDE64C04F1280004F1780104F0CDFFDFF898B3E06014
:20060C0059460AF0ADFA01260821DFF89483ADF86010D8F80000ADF86260014618A888472E
:20062C00BDF8640060801A98A06004F134000AF01DFA00254FF0040904F194074FF47A7299
:20064C00E14920612B4600953846CDF8049006F09BFF1F20314608F047FE30468DF8080080
:20066C000820ADF80A5002AA8DF80C503146ADF80E004FF44870ADF810002846ADF81200BB
:20068C006420ADF8140040F2053001F0F9FA40F2063002210DF10A0201F0F2FA4FF442705F
:2006AC001B2104F15B0201F0EBFA40F207300F2104F14C0201F0E4FA1B974FF444703146FF
:2006CC0003AA01F0DDFA40F2113002210DF10E0201F0D6FA40F21230022104AA01F0D0FA34
:2006EC0040F2133002210DF1120201F0C9FA4FF44570022105AA01F0C3FAD64D002015219F
:20070C0005F147020AF02CF804F11C000AF0DEF90620A02108F0E8FD0720A02108F0E4FD09
:20072C000820A02108F0E0FD0920A02108F0DCFD4FF0FF300AF0C3FA4FF0FF300AF0BCFAF1
:20074C000AF004F805F111023046112102F0E0FB022005212A4602F0DBFB05202A460146BD
:20076C0002F0D6FB05F134020320132102F0D0FB6A1D48460C2102F0CBFB05F12202062030
:20078C00122102F0C5FB7F2004F014F97F2814BF0A200F20052107F077FB07F059FD0028F1
:2007AC0052D107F0BDFB5FEA00084DD0002528464FF4805106F0CAFA05F58055E80CF6D003
:2007CC0000263AE006F500304FF4805106F0BEFA5FEA00082FD004F5847A37460025504661
:2007EC0039464FF4807204F059FDA81900F500394FF480715246484605F054FC5FEA000810
:20080C0013D048464FF48071524607F062F9B8789AF802104FF00008884206D1F8789AF87F
:20082C000310884208BF4FF0010805F5807507F58077280BD3D006F58056700C08BFB8F14B
:20084C00010FBFD007F04AFD06F050FA07F0F6FA0AF0B8F809F088FB06F082F909F0D0FF29
:20086C0006F014FA04F120000AF0A4F804F140000AF0FCF8606104F1180008F01BFD00209C
:20088C0009F01CF9E06859460AF06AF9C64800684FF000084FF00509C34644F62061B1FB80
:2008AC00F0FA08200A213E4FADF858004FF0FF36ADF85A1038681796014616A88847002899
:2008CC0040F01C8108213846ADF848100927CDF818B00068ADF84A70014612A88847149D96
:2008EC000028069540F0FE80BDF84C0010280CD16088BDF84E10884207D128460178B02908
:20090C0003D10179083009F02FFD0698002800F0E98008200321ADF84000214FADF8421069
:20092C0038681195014610A88847DBE0206909F041FC071C00F0D6803878791C401E35D00C
:20094C00401E40F0C4800878B978401E2AD0401E22D0801E1AD0401E12D0401E0CD0401E00
:20096C0006D0801E40F0B380084607F089F8AEE0084603F0C1FFAAE0084604F051FEA6E09E
:20098C00084605F0B5F8A2E020050020084603F053FF9CE099A50000084604F0B1FD96E0E1
:2009AC0094170020084605F061F890E00E783046401E4DD0401E22D0801E01283BD9801E14
:2009CC0004D0801E25D081E021A800001B980AF001F810B91B980AF0AFF9E0680A214246BB
:2009EC0008F05AFAE0680F21424608F055FAE0681521424608F050FA05F0A2FC66E01B9884
:200A0C0009F0E8FF10B91B980AF096F906F028FC5CE009F0CDFA09F095FA09F0E3F909F079
:200A2C00BBF808F071FA06F007FFE0680A21012208F032FA4AE009F0BBFA09F083FA09F097
:200A4C00D1F909F0A9F808F05FFA06F0F5FE3DE0454613E07CAF0000E0680F21012208F093
:200A6C001BFA50460AF022FAE0680F21424608F013FA50460AF01AFA6D1CEDB2052DEBDBE0
:200A8C004FF441700EA902F073F89DF839508DF831508DF834809DF83C108DF833809DF837
:200AAC003D208DF836109DF838008DF837209DF83A308DF830009DF83B508DF83230082175
:200ACC000CAA40468DF8355002F022FA66700820ADF82800354EADF82A9030680B97014688
:200AEC000AA8884720690AF0DDF900283FF41EAF04F0D2F809F04AFA02F096FAA18860786A
:200B0C00CA082CD321F004010628A18018BF022803D11B980AF010F96078062805D14046A6
:200B2C004146424608F03AFE6078022817D1454611E0E0680F21012208F0AEF950460AF03A
:200B4C00B5F9E0680F21424608F0A6F950460AF0ADF96D1CEDB2002DEBD006F081FB6069C3
:200B6C000AF0A0F900287FF49CAE60690AF096F90546287A012806D0022808D16889E9686E
:200B8C0001F054FF03E06889E96803F031F80820ADF82000054FADF82290386809950146A7
:200BAC0008A88847DBE7C0468CB50000941700202DE9F04F064640F29421012541F22D00C8
:200BCC00ADF10C0DC4F22231C4F2090040F81D5C08680028FCD043F6AC7E46F2440AC020AC
:200BEC00C5F2000EC4F20C0AF4464AF8440CDEF80890DCF8041046F25620C4F20800890839
:200C0C0007D271460A686FF00F0E4EEA1241017001E07221017041F28C38C5F2000858F863
:200C2C00D41CC1F304611629A8BF20396246926812175118491C11F10A0FB8BF6FF009010C
:200C4C0000232C4625EAD96201F01F01C4F2203341F4F851018324EA996E1A60002EC3F815
:200C6C0008E073D058F83C1CC1F38360C1F38F275FEA994167D249F3072CBCF1000F29D50F
:200C8C0049F307214A42B1F1FF3F4FEA620215DA7F0805D1400806BF281C2F1C4FF6FF7738
:200CAC007F080CF1010C05D1400806BF281C2F1C4FF6FF77521E0CF1010CE9D1490809D309
:200CCC007F0805D1400806BF281C2F1C4FF6FF770CF1010CBCF1000F35DDBCF1020F4FEA85
:200CEC006C020CF001031DDB4FF6FF717F0047F00107B94207D2400040F001000F2892BF42
:200D0C002F1C0F200F1C7F0047F00107B94207D2400040F001000F2892BF2F1C0F200F1CF2
:200D2C00521EE3D1002B0EDD7F004FF6FF7147F00107B94207D2400040F001000F2892BF2D
:200D4C002F1C0F200F1C47EA004703E040F6FF77C0F20F0709F0F8FE39460022002808BF94
:200D6C002A1C48F20007C4F20C0738680028FCD04AF20800C4F20C0001613D600AB109F0CA
:200D8C00E9FE002E08BFD82109D058F83C1C58F83C0CC1F3870100F0030041EA002188B2A4
:200DAC00009040F2FF3200232C214AF20000C4F20C0006F098FC002E1ABF58F8100CC0F316
:200DCC000D0B40F2FF3B09F0BFFE0021002808BF291C38680028FCD04AF20800C4F20C00DE
:200DEC00C0F814B03D6009B109F0B4FE002E04BF4FF0000BC6F6880B0DD058F818BC0BF0E3
:200E0C007C420BF47C010BF47C4011430BF0FC0B08434BEA000B09F097FE0021002808BF52
:200E2C00291C38680028FCD04AF20800C4F20C00C0F80CB03D6009B109F08CFE002E04BF88
:200E4C0047F28A6BC0F2680B0DD058F81CBC0BF47C020BF47C410BF4707011430BF03F0B7D
:200E6C0008434BEA000B09F06FFE0021002808BF291C38680028FCD04AF20800C4F20C0086
:200E8C00C0F808B03D6009B109F064FE002E3AD058F8140C43F6AC71C5F200014B68C0F308
:200EAC0003525B08C0F3034117D243F6AC73C5F200031B6843F3032C12EB0C0203D4102A78
:200ECC0002DB0F2200E0002243F30333C91803D4102902DB0F2100E0002141EA021100F459
:200EEC007F4200F0F00E0B0400F00F0B222E42EA03024EEA02014BEA010B08D300F0804096
:200F0C0040EA0B0B03E043F6277BC0F2710B09F01BFE0021002808BF291C38680028FCD09E
:200F2C004AF20800C4F20C00C0F804B03D6009B109F010FE222E26BFD8F80000C0F30070AD
:200F4C00281C4AF2400BC4F20C0B222E4FEA400040F020008BF8090126BFD8F80000C0F3DF
:200F6C004070281C202E40F010008BF809013CBF002001900CD3D8F80C00C20C02F4407279
:200F8C00800D00F01C0100F0030011430843019009F0DAFD019A0021002808BF291C386828
:200FAC000028FCD04AF20800C4F20C0002623D6009B109F0CFFD202E26BFD8F80C00C0F3E9
:200FCC0001500020222E4FEA400040F060008BF80C0126BFD8F80000C0F3C06100216FF0A2
:200FEC007F00222E40EAC1008BF8010126BFD8F80000C0F3455100214FF60040202ECFF6EF
:20100C00FF7040EA8100ABF89C0105D248F20000C4F23F0001900BE0D8F80C000003820D7A
:20102C0000F47C11920500F4704011430843019009F08AFD019A0021002808BF291C3868A8
:20104C000028FCD04AF20800C4F20C0002603D6009B109F07FFD44204FF0880E8BF8C500DB
:20106C00002E8BF8C7E01ABFD8F80000C0F3C141002140F68406C9F3815041F03001C4F228
:20108C008C3600288BF8C81041D0401E07D0401E37D00420022106F0CAFC00214BE0284697
:2010AC0008F018FF04460420214606F0C0FC042008F010FF8442FAD143F6AC70C5F20000C6
:2010CC0050F8040C0104090C4AF8081CC0F3074E4AF804ECCAF8005031680029FCD0002230
:2010EC0040F2B411CAF80020C1F2000109680B68000E4FF06022072198474FF48060CBF8B7
:20110C0000000420032106F092FC002113E00420294606F08CFC43F2BD704AF8080C4FF0DB
:20112C0086094AF8049CCAF8005030680028FCD00021CAF8001058F8200C4BF2700342F241
:20114C002C0E41F22D0C47F6180240F29449C4F20C0300F03F00C4F2090E8BF8CB0FC4F2A3
:20116C00090C1A80DEF800004AF8441CC4F260294CF81D1C03B0C9F80050BDE8F08F7047E1
:20118C002DE9F04F0820ADF1740DDFF828B3ADF838000120ADF83A00DBF8000001460EA848
:2011AC008847C54CBDF83C002082002666701098A0624FF6FF70E08207F06AFFB046C44D8D
:2011CC002070324633460120CDF800802946019004F1A800139006F0D7F90220CDF80080AF
:2011EC00324633462946019004F1CC00129006F0CBF90420CDF8008032463346294601907B
:20120C0004F1F000119006F0BFF904F14A09042010223146A070484604F0A8FD04F15A0AE9
:20122C0010225046314604F0A1FD04F12C073E6004F10A052E70072060721021E6714A4658
:20124C002672022007F040FF03201021524607F03BFF04203A46014607F036FF139814900F
:20126C00CDF85890CDF85CA04FF003081A9705F13A00139005F17F00159005F12E00189040
:20128C0005F16000199034351B950AE06078062818BF072805D1208AE18A1322C0B207F0AB
:2012AC00C5FA08200A21ADF830004FF0FF35ADF83210DBF800700D950CA8394688470028D2
:2012CC0040F069813046082102900925ADF82010DBF80070ADF8225008A839468847DDF887
:2012EC0028A00028CDF808A040F05581BDF82410208A102940F04181BDF82610884240F0DC
:20130C003C8155462A884FF6FF73A91C934200F02C8151460F78A23F00F008812E3F40F0B4
:20132C002C818978B146002900F0D480891E00F0A880491E01297CD9891E4CD0491E23D0CD
:20134C00491E03D0083900F0E280E4E0119809F0F5FC02984778002F40F0DD80C18821845A
:20136C00018961844089A084129809F033FB002840F0D180676B002F00F0CD803B68208CFE
:20138C00618CA28C9847F8E0A88808F081FB13984946062204F0EAFC26846684A684A879B0
:2013AC006073129809F0CAFC119809F0C7FC4FF001094FF6FF702779E0824FB9A879082828
:2013CC0014BF042005206070484609F0EBF8A2E084F801809FE06F78E37A27BB291D0A68CF
:2013EC001398026089888180062767706889E082E8892084288A6084688AA084E878012B1E
:20140C00207308D11F2007F0F3F94FF47A714143129807F095FDE8786A892D1D042329461A
:20142C0006F080FB7AE0687831286ED1E670042023E06F78002F68D1A878A78A617803283C
:20144C0012D0E078257927B9012814BF2671E67006E0054304D01498394607F071FD617874
:20146C000729E4D1062008E0062908D0E778002F08BF84F8018051D0022060704EE00720AC
:20148C00FBE76B786F1C002B3FD1ED78A279ADB96078022818D0072816D0062802D1207936
:2014AC00012811D1149809F095FA68B9012009F079F809E094170020E4090020159BC0B252
:2014CC00494606F011FE38703F78F7B923E0C046B1A500006F78C7B9169A0220102107F09D
:2014EC000FFE179A4046102107F00AFEED1C29681898AF8801600125878029466279199B5F
:20150C00207C657006F0F0FD40B10820B5E7A888052109F0E7FAB9F1010F2ED1276B002F0C
:20152C002BD03F684FB36078B84726E06879132823D12889012810D1A07B02280DD1119887
:20154C0009F0FCFB6078062818BF072815D1207CE18A132207F06AF90FE0052007F048F9BB
:20156C000146119807F0ECFC07E00888C00B04D31A9A0420014607F0C3FD029FDBF800002D
:20158C004FB10821ADF81810ADF81A80CDF81CA0014606A88847608A2779E17842082ED397
:2015AC0020F0010057EA0105608228D0234802886FB9E179207A8DF80C101B9F8DF80D00EF
:2015CC003B680DF10E052B60B988A98001E08DF80C80607A8DF81400A17A8DF81510D0B2AA
:2015EC0003A909F079FA48B10820276B60702FB13D681DB13868014608208847608A8108A0
:20160C0006D320F002006082304604F0CFFE608AC108FFF446AE20F00400A77B60827F1E6B
:20162C0003D07F1E3FF432AE3BE601200090618BA28BE38B208B05F0CBFE32E6F409002024
:20164C002DE9F84FC64DC74ED5F8EF1FCC4C7368D5F8F30F8843C5F8F30F002BC5F8FF1FCC
:20166C0000F011817788012B00F0D680DFF8FCB2BF4FDFF800A3DFF80093DFF80083022B6D
:20168C0072D0032B40F06A810024B06855F8312C74600028A2F5C062B8BF4042114600299F
:2016AC00B8BF494288422EDA111C54BF02206FF00100B26900EB4100032190FBF1F189180F
:2016CC00B161F368706998420BD0B1F11002B8BF524230691038B8BF40428242B8BF88B2F5
:2016EC0009DB98B20090A04830214FF47F42082305F0F9FF308A00909B4804214FF4F8023C
:20170C00122305F0F0FF5846046001688908FCD20460012644600E203E6002F0F9FE504660
:20172C000468EFF3118584F3118849460820B0FA80F00A1AD07F431E0128D37704D1424634
:20174C00106820F00800106085F31188EFF3118384F311880420B0FA80F0091AC87F421EDE
:20176C000128CA7754D14EE055F8310CB0F5C06F17D00327776001F063FD45F8397C0027F0
:20178C00276020688008FCD27748394660220523009105F0A8FF0126266020688008FCD337
:2017AC0064E0002171605846016002689208FCD20160012641600E203E6002F0A9FE5046F2
:2017CC000468EFF3118584F3118849460820B0FA80F00A1AD07F431E0128D37704D1424694
:2017EC00106820F00800106085F31188EFF3118384F311880420B0FA80F0091AC87F421E3E
:20180C000128CA7704D14246106820F00400106083F31188BDE8F88F55F8312C02214BF2B4
:20182C00F52071605043000A37B95649096821F07F414018400801E0002171806060000CE9
:20184C00A0600126E660032745F8397C0027276020688008FCD24448394660220523009121
:20186C0005F041FF266020688008FCD345F8216C45F8397C0820C5F8FF0FC5F8F30F45F817
:20188C00396CBDE8F88F40480068006801462020884741F61D574FF002080F2045F82D0C24
:2018AC0000214FF4C072072345F8297C2E48CDF8008005F018FF012744F8047C54F8040C73
:2018CC008008FBD3308845F81D7C012821D0032045F8390C4FF00009C4F8009020688008B5
:2018EC00FCD22148494660220523009105F0FBFE276020688008FCD345F8217C45F8399C9B
:20190C000820C5F8FF0FC5F8F30F45F8397C474623E04FF00009C4F80C90032045F8390C42
:20192C00C4F8009020688008FCD20F48CDF8008049466022052305F0D6FE2760206880083C
:20194C00FCD3202045F8210C45F8399C0824C5F8FF4FC5F8F34F45F8397C7760BDE8F88FC5
:20196C0039400C40B822002000A00C4034600C4004800C4088B500008F180020201E00209E
:20198C0038600C4010200940A00100102DE9F04F5FEA0009ADF11C0D00F05581AC4800689D
:2019AC00EFF3118280F31188DFF8C8B29BF80400012818BF012003D1022100208BF80410E3
:2019CC0082F31188012800F03C8109F063FA0390A948046804EB0B0009F064FA4FF0000839
:2019EC00464637460BEB0401CDF810800191B0B90C46084609F04AFA0546A868400808D32C
:201A0C00E8682969024601209047C0B2002840F01081284609F036FA0546AC42EDD1002F80
:201A2C0040F00B8109F02AFA0290059789480760012008F04FFA012804D1404606F01AFE67
:201A4C004FF00108844F38688068014630468847864819300090D0F8FF0FB9F1000F00F025
:201A6C008C80864C0A34E57905B10126A5790DB146F0020665790DB146F00406DFF8DC91C9
:201A8C0065782DB1B86A006B49460246C88D904725782DB1B86A006B49460246488D904764
:201AAC006F4901200860B86A8069014646F0200088476C4DDBF80010286840F0010028607D
:201ACC00480813D2684808F0CAFF8246BAF1040FF8D0D5F8180220F00300C5F81802B86C11
:201AEC004068024660480321904701E001200490059800F0E4FBB86A0099806BD1F8FF1FB8
:201B0C008047049858B9B86C40680246564851469047D5F8180240F00300C5F81802386894
:201B2C008068014601208847504801688909FCD3B8F1010F02D1012006F09CFDB86A406911
:201B4C00014630468847B86A406B0146304688470128F8D166782EB1B86AC06A49460246C2
:201B6C00C88D904726782EB1B86AC06A49460246488D90473A49012008603A4801680322C5
:201B8C0021F00101016001988BF8042009F08AF90028059818BF01200125C0B9019C2046AA
:201BAC0009F074F90646B068C00806D3F0683169024604209047C0B230B9304609F062F954
:201BCC000646B442EFD102E02948006880472148009F0560D7F8FF0F08F0BCFF019809F0E6
:201BEC0061F9059FC8B9019C204609F04FF90646B068000906D3F068316902460820904797
:201C0C00C0B230B9304609F03DF90646B442EFD103E0174800688047022702988BF80450AB
:201C2C0009F028F905F000F8039809F01FF938460AE00F4800688047022701208BF8040026
:201C4C00F2E7062000E0022007B0BDE8F08FC04688B500000C400940900100102CB0000047
:201C6C00282008600C20084000400340141009407CB50000201E002078B500007C180020D4
:201C8C0003462DE9F041A248A04DA3F2013C002714460E46BCF11A0F1CD8DFE81CF02A0162
:201CAC0025011E011B00FA00F400DD00CC00C500BE00B600AE00A6001B001B009D00900031
:201CCC00820078006B001B001B001B001B0052001B002600272B06DA022E04D12188184656
:201CEC0007F002FBCDE002270DE1012E40F003812846C178012900F0EE8002792178017188
:201D0C0082B9002900F0FF804078012800F0D480042800F0D180062800F0CE80052800F0C9
:201D2C00CB80F0E02178002940F0ED804178032900F0CD80072900F0CA80052940F0E380D0
:201D4C00C5E0012E40F0D7802078012840F0D38005F1F00008F03EFE50B9384604F026FB22
:201D6C00071C40F0D0802846CC3008F0E7FFCAE01627C8E0022E40F0BE8021880A29C0F2B1
:201D8C00BA80B1F5486F00F3B6801E3015E0022E40F0B1802188B1F5FA7F80F2AC801C30F1
:201DAC000BE0022E40F0A78021880629C0F2A380B1F5486F00F39F801A300180A3E0022E0B
:201DCC0040F0998021880629C0F29580B1F5486F00F391801830F0E7012E40F08C8021788B
:201DEC00022980F288800B300DE0012E40F08380217804297FDA0A3005E0012E7BD1217856
:201E0C00082978DA093001707DE0062E73D121683E300160A688868075E0012E6BD12178CF
:201E2C00042968DA0830EEE7012E64D12178042961DCC01DE7E7202E5DDA05F1890839467D
:201E4C001F22404603F092FF21463246404603F025FAAE7139460FE0202E4CDA05F16A084B
:201E6C0039461F22404603F081FF21463246404603F014FA6E710121287C3246434606F09B
:201E8C0033F907463FE0022E35D121882846143093E7012E2FD12846017901291BD0C2782D
:201EAC002178C17062B900292DD04078012803D0042818BF052826D1012008F073FB22E0A7
:201ECC00217801BB4178022918BF05291BD1007C08F020FD17E0122715E0042E0BD121687F
:201EEC0028462C3001600EE0102E04D128465A3005E0102E01D0182705E028464A3011465B
:201F0C00102203F0CBF93846BDE8F081E4090020E40900202DE9F0411C4615468C4208BF85
:201F2C00854282BF00230022E5E0002C08BF002D0AD100290EBF00286FF000006FF00001AB
:201F4C0000F0E1F8BDE8F0815FF000085FF0000E002C08BF8D429CBF2C1C0025070C47EA14
:201F6C0001470E0CB44208BFBD429EBF5FEA044444EA15445FEA0545070A47EA01670E0A6D
:201F8C00B44208BFBD429EBF5FEA042444EA15645FEA0525470847EAC1774E08B44208BFC6
:201FAC00BD4200F29380870847EA81778E08B44208BFBD427CD8C70847EA4177CE08B4422F
:201FCC0008BFBD4266D8070947EA01770E09B44208BFBD4250D8470947EAC1674E09B44247
:201FEC0008BFBD423AD8870947EA81678E09B44208BFBD4224D8C70947EA4167CE09B4428F
:20200C0008BFBD420DD8E60146EA5566EF01B14208BFB84201D3C01BB14158EB08085EEB56
:20202C000E0EA60146EA95664FEA8517B14208BFB84201D3C01BB14158EB08084EEB0E0ED4
:20204C00660146EAD5666F01B14208BFB84201D3C01BB14158EB08084EEB0E0E260146EADE
:20206C0015762F01B14208BFB84201D3C01BB14158EB08085EEB0E0EE60046EA5576EF00BC
:20208C00B14208BFB84201D3C01BB14158EB08084EEB0E0EA60046EA9576AF00B14208BFED
:2020AC00B84201D3C01BB14158EB08084EEB0E0E660046EAD5766F00B14208BFB84201D3F9
:2020CC00C01BB14158EB08085EEB0E0EA14208BFA84201D3401BA14158EB08085EEB0E0E12
:2020EC00A34208BFAA423EBF2D0A45EA0465240A89D3734642461E4617460B4602463146D4
:20210C003846BDE8F08170472DE9FC4F83F0004301E02DE9FC4F1F03FF0847EAD2574FEA53
:20212C0042284FEA43095FEA595906D147EA080A1CBF00210020BDE8FC8F57F000575FF452
:20214C00E06E1EF1FF0EF14505D14FF00000190D0905BDE8FC8F002B05D55FF0000AD8F133
:20216C0000086AEB07070C03E40844EAD0544FEA40254FEA4106760D08D144EA050A19BF0C
:20218C0000210020191C101CBDE8FC8F44F00054764504D10020090D0905BDE8FC8F0029AC
:2021AC0004D55FF0000A6D426AEB0404B6EB090E08D5A2463C465746AA464546D046CEF1E9
:2021CC00000E4E46BEF1360F5CBF4FF0000B23E0BEF1000F04BF4FF0000B1AE0CEF1390A2E
:2021EC00BAF120092EBF08FA09FB07FA0AFB4BEA080BDEF1200A07FA0AFA38BFBA4647FA88
:20220C000EF72DBF28FA0EF8AEF1200E4AFA0EF8D04415EB08057C4154EA050A02BF002175
:20222C000020BDE8FC8F002C58BF4FF0000A06D55FF0010A5FF0000E6D426EEB0404A6F17D
:20224C0001066D006441FAD515F4806E11D005F480794BEA090B15F5806554F1000428BF58
:20226C00761C0BD205F400795BEA090B08BF25F4006525F4E0656D0044EB0404B61CDEBF62
:20228C0000210020BDE8FC8F5FF4E06E1EF1FF0E76450AD34FF0000013F00043FF21C900FE
:2022AC00C91D09051943BDE8FC8F270547EA1530210B41EA065141EACA71BDE8FC8FF8B5FF
:2022CC0004460020C4F209000068800880F0BB8007F0C8FB42F22421C4F208010A680021A9
:2022EC0012F0030F18BF0121D20828BF41F00201002C18BF41F0040143F65036C2F200061E
:20230C0096F90720821A052A04DAB2798A4208BFB2886FD041F29C340F28A0F10F02C5F288
:20232C00000424DB02EB02121712072F88BF07273D46062D88BF062554F825C00423A6464D
:20234C0003EB85035EF80330CD08A3EB0C0303F0FF0C24BFC3F30725AC448D0824BFC3F31F
:20236C000745AC444D0805D30CEB136C02E04FF0000C674654F82730CC0803F0FF0524BF47
:20238C00C3F3072425448C0824BFC3F3074425444C0828BF05EB1365A2EB07221FFA8CF315
:2023AC00534380330022082B88BF012243F6B473C5F200031C681B684FF4D07C3427521993
:2023CC00241703F0FF0307FB14C45C434FF6FF73B4FBF2F2934238BF1A1C802892B2B280DE
:2023EC0005DA10F1800F03DA6FF07F0000E07F20F071B17142F20800C4F2090001681F2AF8
:20240C004FF00000316008D340F2FF11914206D25208401C9142FBD301E01F22B2800F3A24
:20242C004FF600714FF0350E1209C8F2A401C4F2090E40EAC2000143CEF8FB1F4FF0000CB6
:20244C00CEF8FFCFF8BD43F656324FF6FD50082141F2300EC2F20002C0F2A4001170C4F2F7
:20246C00090ECEF80000F8BD2DE9F04F8346ADF15C0D06F005FF4FF00009012805D108F060
:20248C000CF8022808BF4FF0010954490868C0F38150012806D151F80C1C0120090E8840F0
:2024AC0040EA09094E494F484F4D09780068C0F34600286006F0E4FE2C46012818BF2068CE
:2024CC0002D12068401C206038B1FF2204F1400107467F1E01F8012BFBD1DBF80010002695
:2024EC0001F0FF02FF2A1BD08C46DE46324601270CF0FF01884204D907FA01F319EA030F87
:20250C0001D0022067E00CF0FF015EF804CF61181E4381F84020521C0CF0FF01FF29E9D151
:20252C00092001F0AFFCC4F804B001A800212422082308F097FC4FF0010804F1240001AA88
:20254C008DF81C80414608F089FC23682BB300276035BA4608FA07F019EA000F17D10642EA
:20256C0004BF07F0FF0141F4C04104D0E01990F840005BF820101D4802F07AFAF8B24FF093
:20258C00FF3107F053FF2368C5F800A001E0042028607F1C2D1D9F42DCD30AA800213022A7
:2025AC00082308F057FC002504F1080010210AAB0F4A009508F04AFC0E4A52F80D0C414623
:2025CC0020F4F85040F4005042F80D0C0A4BC2F8FF1F2846196017B0BDE8F08FB43F00507A
:2025EC00583B00208012084050380020007FC767858100000D300940080009402DE9F84FB3
:20260C000D4681462868D9F80440D9F808B0002800F0A98008F016FC616D21B108F00EFC79
:20262C00032028749FE001212974656508F006FC94F8700030B194F859204C49A06E1143F4
:20264C0006F022FFDBF80010486840F002004860D9F804C0D9F80830D5F800E09CF8582093
:20266C0019681FFA8EF09040B1F1804F1FFA80FA14BF3F4E3F4E4048AA6832B99CF85810F4
:20268C008F00C2590CF1720108E09CF858108F000AEB0201C21952F8082C491EB260716006
:2026AC00196801F10808C6F80080B2684FEA0E1143F6F07E10390EEA01010A43B2601A6810
:2026CC00B2F1804F14BF2D4A2D4A6E68002E04BFC0599E1D04D0C01950F8100C5644761EE1
:2026EC0090601660C2F80480906801439160DCF86C00DF6841689A68096847EA020088623D
:20270C001968486A40F003004862DBF80010486940F0010048616E6808F094FB194D07461F
:20272C00287801280AD016F0704F02D1102006F003FD042006F000FD01202870384608F0E6
:20274C007DFB207828B961683834204608F072FB10B10120BDE8F88F484600F0F3FD20469A
:20276C00002108F067FB0020BDE8F88F0000068000050020300400200CB000001005002096
:20278C00400400205E3B00202DE9FE4F82460E460CAF307A3C8899461546800928BF082096
:2027AC0080F09780084602A907F064FA012808BF012000F08E80BDF80800DFF81CB142F690
:2027CC00021100274FF0FF08401A6BD048F2FF21401A33D0401E18D0401E61D1002C5DD1F1
:2027EC00B9F1020F58D12878062825DAF06829880180F168584688425ED1594608784978C2
:20280C0004F0E0F94FF0020859E0002C46D1B9F1060F41DA287810280EDCF06829464A4627
:20282C0002F03CFD04F04AFDF16858460C30884242D14FF0010842E080273DE074BBB9F10F
:20284C00100F29DCF06829464A4602F027FD5C46584600F10C0220781678012802D9401F13
:20286C0012D029E06178557803F0F6FA1EB9284608F0B8F805E004F111012846324607F022
:20288C00E3F908F073F917E0D2F8010004F11101324602F003FD0FE00D270DE00B270BE08C
:2028AC000A2709E0009401212A4650464B460191314604F0EDFE0746B8F1FF0F08D0584643
:2028CC00001D006820B1006810B10146404688473846BDE8FE8FC046E8190020B0B54568E8
:2028EC0084684D48297BADF1180D01291AD001462F7E227C637C494837F0010741EA020270
:20290C0040EA030001904648009218BF011CA27C1143029195F859200323FF2A13D0014655
:20292C0010460DE0A17C627C237C41F00041024343F00043029195F8590000933949019260
:20294C00014304230391FF2105F15C004DF82310694602F01FFEA866002808BF002058D07F
:20296C00287B314951F82000012828D02068B0F1804F14BF22220A22217CA86E07F01EFAA7
:20298C002068B0F1804F14BF21220922617CA86E07F014FA2068B0F1804F14BF24220C22BB
:2029AC00A17CA86E07F00AFA95F85910FF292FD02068B0F1804F14BF23220B2225E02068F6
:2029CC00B0F1804F14BF21220922217CA86E07F0F5F92068B0F1804F14BF22220A22617C8A
:2029EC00A86E07F0EBF92068B0F1804F14BF24220C22A17CA86E07F0E1F92068B0F1804F9F
:202A0C0014BF23220B2295F85910A86E07F0D6F9012006B0B0BDC046000480A00040008065
:202A2C000004C0A000200080F4AF00002DE9F04F04460D464D4E68782978ADF1140D01EB2A
:202A4C000021ADF800107188BDF80000884217D1706940F6FF7200EB0110024203D1000B95
:202A6C00C0B208F0E3F8BDF80010B079AA1C1023090108F0E5F87088401C81B2718007E0E0
:202A8C0007F08CFE20464FF6FF7103F0D3FF7188B088884264D10DF1020007F07BFFBDF873
:202AAC0002004FF6FF71814257D0BDF80200002853D0BDF80400814203D0BDF80400002837
:202ACC0043D1B288F0880027110101F47043C5B203975FFA92F2C91A82181FFA81FB5FFAEA
:202AEC0082FAAA4528DBAAEB050101F10108A8420CBF04240024AA45D8BFA34516DD2846F6
:202B0C0021460DF10602042308F095F804270DF1060919F8011B039806F048FF7F1E039023
:202B2C00F7D1241DA4B2B4F5805FE4DBF0886D1CB8F10108EDB2DAD10398002106F036FFFF
:202B4C00002106F033FFADF80400BDF80400BDF80210884201D101F00DFE07F01FFE02E069
:202B6C00204603F067FF05B0BDE8F08F3C1900204D4B2DE9F04F0C46343B998BADF13C0D83
:202B8C0086460991587B0E90598B089158780D90198B0791988C0C90D97A588C0691D3F8D3
:202BAC002CA00B90997A188C059193F804900A90597A93F80C800491197AD88B0391D97941
:202BCC005A7902919979DE8A0191D9789F8A00919978AEF5407C0025BCF11D0F10D8DFE84F
:202BEC000CF05D5653504E4C4A4743403E3C3937350F3432302E2D272422200F1D1B1A18A4
:202C0C00BEF1270FA8BF022549DA704605F0F0FD14E0DDF83880C146CDF834900D9805902F
:202C2C0016E00C980B900B980A900A98074622E04433186820609888A08030E00990099824
:202C4C0008900898079007980690069E268026E0059804900498039001E03E33E9E70398F7
:202C6C0002900298009008E0019A03F1890111E003F16A010EE03846E0E700990EE0383316
:202C8C00D7E7C4F800A00AE003F15A0101E003F14A011022204602F001FB00E02170284650
:202CAC000FB0BDE8F08FC046180A00202DE9F04F8046D8F80450D8F808400F46ADF1540D32
:202CCC0008F0C0F895F8981004F10409012903D108F0B4F8002077E04FF0010B85F898B0D8
:202CEC0008F0ACF81FB90DA807F02CFE0DAFF86828B9D8F80800067B90F80DA002E0067893
:202D0C0090F801A0FF2EE5D0BAF1FF0FE2D0FF222F49304C139241EA0600119041EA0A016F
:202D2C001291201D11A902F035FC00282060D1D031460D2207F042F8206851460E2207F064
:202D4C003DF83878287078686860387A002130220823E86001A808F07DF8CDF81880002413
:202D6C0000941D4AD9F8001005F1100001AB08F06DF801A824220823214608F073F805F182
:202D8C002C008DF81CB0594601AA08F067F8287838B905F14800214601AA08F05FF80F4882
:202DAC006860AC672C72EC6799F8040001F06AF8404604F02FFF05F18400094A0094042125
:202DCC00434606F0C3FD404615B0BDE8F08FC04600200084303B00201D3B000075AC00008B
:202DEC0021AA00002DE9F04304466668A5680F46ADF1540D08F026F896F8A4102D1D01296E
:202E0C0003D108F01BF8002076E04FF0010986F8A49008F013F81FB90DA807F0E7FC0DAF30
:202E2C004FF00008C6F854803869306178697061387E3076387B307338783070786886F869
:202E4C007080706078694146092828BF494686F85810687801F016F8204604F069FBE87BB1
:202E6C0086F859002046FFF739FD50B9687801F04FFB07F0E7FF86F8A48007F0DFFF4446DB
:202E8C0039E001A841463022082307F0E3FF0694CDF800801A4A297806F11C0001AB07F0ED
:202EAC00D5FF307878B901A841462422082307F0D9FF06F138008DF81C90414601AA07F060
:202ECC00CDFF104800E0B868B06003F04BFC317BF066012906D1B06E0B4907F041FEB06EAF
:202EEC0000B1846006F19000084ACDF800800421234606F02BFD204615B0BDE8F083C0461E
:202F0C00513500007DAC0000DD8E0000C1AB00002DE9F0470C469046DFF8F890414D3F4F2F
:202F2C003D493F4AD9F8003008284FF00006ADF1180D69D8DFE800F05F5B4C4844403A1128
:202F4C0005C0072C59D14046828805F108018A8087798F710068086057E003940420ADF843
:202F6C000A004FF0080AADF808A002A89847D8B904980746C0B1696805F1170088420BD0A6
:202F8C0005214846ADF802106A68ADF800A00068019201466846884738464146224602F085
:202FAC007DF96F602C7030E013262EE0142C24DC01F11505294601E0142C1EDC0D460BE0B9
:202FCC00142C1ADC3D4606E0142C16DC3D4603E0142C12DC1546153528463146152202F0CD
:202FEC00C5FE28464146224602F058F90DE0142C03DC1546DEE7082C01D0182605E0404688
:20300C0042686A394A60A5E70226304606B0BDE8F087C046941700201D160020F315002065
:20302C00C9150020A41500202DE9F0413E4F3878002876D03D4C208910F07F0F00F07F0884
:20304C006DD005F02CFE3A4E21783578A0700DB902293AD12279C30917D2400824D304F1AA
:20306C00140005F0C3FD04F11A0005F083FDE578E088002D08BF217816D00021E1702178B4
:20308C004FF47A7292FBF0F009E0521CD0B20228207109D1E0884FF47A72B2FBF0F002B242
:2030AC00500000EBC200E0600025022935700CD12089C00909D304F1200000F03FFB05283B
:2030CC0022D008B104F070F82178E66816B901291BD124E0022904F1140509D00220207049
:2030EC000026267100F03AFF10B1404601F078FA2089000A02D3E068401EE0600020122173
:20310C002A4602F095FF0AE0E560002020710126267000F023FF10B1607800F0D7FD002081
:20312C003870BDE8F081C0465C3B0020B81F00205B3B00202DE9F0430646ADF11C0D07F008
:20314C0075FE06F0B3FA4FF000090546CDF8089007F036FD30F0010002D00298A84202D1E9
:20316C006FF0040068E070684C4658B1B0F1FF3F05D001A906F06AFA30B107465BE04FF0C5
:20318C00FF3000E02046019007F04CFE0199012701EB000802E013463DE0019368680199D0
:2031AC0007F048FE00282FD003A804F0C7FAE0B9BDF81000694606F061FA90B9B268BDF8C9
:2031CC000000BDF812101346059A984748B1BDF80000BDF81210B081059BF1814F46336144
:2031EC0012E0059902A806F0CDF80198641CB0F1FF3FD3D00028D1D007F014FEB8EB0003BB
:20320C0002D001989842C8D2029E07F0C9F805F1080146B1334653F80C2C002ABBD10A6851
:20322C0043F80C2C0E6007F045FA24B1686807F0F5FD641EFAD1384607B0BDE8F08370478C
:20324C002DE9F843804607F07FFC002100B901213A4D2D1F28680028FCD0DFF8DC9001261C
:20326C0009F10407FC6A2E6009B107F073FC3448C4F3072100F10804616007F065FC014671
:20328C00002001B93046014628680028FCD03F682E6009B107F05EFCC7F38441A8F5C0608B
:2032AC00A160B8F5C06F2060B4BF6FF001030223626803EB4003032093FBF0F009181046A7
:2032CC0002290FDB1E290BDB3F28B9BF521C401C3F22101CE2603029B4BF10391F210DE0E6
:2032EC00E0600BE010F13F0FACBF401E6FF03F00E06011F1100FACBF10310021216180B2FF
:20330C004FF47F42082330210090484604F0EBF90096484604214FF40032112304F0E3F969
:20332C00208A04214FF4F80212230090484604F0DAF9BDE8F883C04600A00C4004800C4079
:20334C00B82200202DE9F04707467C68BE6807F079FD0834E16C002968D007F06FFD316870
:20336C00486820F0020048603168486A20F003004862606EF5684168B268096845EA02003F
:20338C00C1F804053168486920F00100486130684FF00108C0F820803068B0F1804F14BF48
:2033AC0040F201104FF48070224909688847384604F0BEF8E06CD0F804A007F043FD1E4D5E
:2033CC008146287850B11AF0704F02D1102005F02BFC042005F028FC00202870484607F017
:2033EC002DFDE16C087C042802D003200874E16C606E4368B268F0681B68454610438540CB
:20340C00DD623068B0F1804F14BF0C480C48026808689204A0EB9250401E08602068002390
:20342C000246E36438469047BDE8F08707F006FDBDE8F087780000105E3B002008050020FC
:20344C00380400203A482DE9F04F0821ADF11C0D0068ADF8101001460120ADF8120004A845
:20346C008847374CBDF8140060800698A06003F0FDFC04F10C0006F05BFF4FF0000884F8A7
:20348C0000804FF47A76A68006F0ACFC02206421012207F093F84FF0FF3104F1100001F0F8
:2034AC00B9FD2448244D07682448B5FBF7F9B0FBF7FA38E0012006F0BDFC484607F0F6FCF7
:2034CC0002A804F0A1FE8346404606F0B3FCBBF1000F1CD002A801A96A4600F029FA9DF85C
:2034EC0005308DF809309DF804208DF808209DF806008DF80A009DF802108DF80D109DF85F
:20350C0001308DF80C309DF800208DF80B204046062102AA02F0A8FEA0887043401BB0FB76
:20352C00F7F007F0C3FC20780128C3D05046F8E7941700208CB500008038010040420F00C3
:20354C00700D00202DE9F0470646B1680A687468D06908341062400842D2606E406802689F
:20356C00CD68D2F80405284206D00B68586A20F002005862C2F80455D2F8042588680242BC
:20358C0058D00A68506A20F001005062606E406889680068C0F80415E06C00250574E76C2B
:2035AC00D7F804A007F04EFCDFF88C80814698F8000050B11AF0704F02D1102005F034FB20
:2035CC00042005F031FB40460570484607F036FC2068E5643946024630469047BDE8F087E7
:2035EC000A68506920F001005061E76CFFB9506820F002005060506A20F003005062606E00
:20360C008B684468CF682168B2F1804F47EA0300C1F804050CBF4FF4807040F20110074946
:20362C0009688847304603F083FFBDE8F0873046FFF788FEBDE8F0875E3B002078000010E8
:20364C002DE9FC4191EA03084CBF4FF000484FF000084FEAC32545EA52554FEAC2264FEA5B
:20366C0043077F0D11BF45F0004500210020BDE8FC815FF4E06E1EF1FF0E774555D04FEAE4
:20368C00C12343EA50534FEAC0224FEA4104640D11BF43F0004300210020BDE8FC817445FE
:2036AC0043D0E419A3FB0501A3FB06E7A2FB06631EEB030E57F1000751F10001A2FB056308
:2036CC001EEB060E57F1000751F10001FF1851F10001C01951F100014CBF4FF4806E4FF43A
:2036EC00007E10EB0E0051F1000148BF641C01D4400049415FF44077FF37E41BDEBF0021D1
:20370C000020BDE8FC8117F58067BC420DD24FEAD02040EA41504FEA41014FEA113141EA86
:20372C00045141EA0801BDE8FC810020FF21C900C91D090551EA0801BDE8FC81FEB53D4C33
:20374C0005460621601C017007F096F818B907F00DFA0020FEBD002601206821667002F037
:20376C007BFB2220694601228DF80000372006F06BFA08B90520607007F0F8F960780028DE
:20378C0018BF301C54D101200C2102F065FB02206946012206F0AFFF00283CD09DF80000D4
:2037AC00400836D303200DF10101072206F0A3FF68B39DF80700000927D29DF802709DF873
:2037CC0001009DF804609DF803109DF806309DF8052040EA072041EA062142EA032200B210
:2037EC00288009B2698012B2AA80B4F90830584300122880B4F90A00414308126880B4F95F
:20380C000C0042431012A88007E0032004E0042002E0022000E00120607011208DF8000024
:20382C00694601220A2006F00FFA07F09FF96078FEBDC0464C21002038482DE9FC4700688B
:20384C000068014620208847354DDFF8D8A04FF002080F2000214FF4C072072345F82D0C1F
:20386C0041F61D5045F8290C5046CDF8008003F03AFF2D4C012644F8046C54F8040C8008EF
:20388C00FBD3DFF8A890B9F8000045F81D6C01281FD0032045F8390C00272760206880084D
:2038AC00FCD23946504660220523009103F01BFF266020688008FCD345F8216C45F8397CB0
:2038CC000820C5F8FF0FC5F8F30F45F8396C464620E00027E760032045F8390C276020689A
:2038EC008008FCD2CDF80080504639466022052303F0F9FE266020688008FCD3202045F896
:20390C00210C45F8397C0824C5F8FF4FC5F8F34F45F8396CC9F80460BDE8FC87A001001066
:20392C0039400C4000A00C4038600C40B8220020F8B53A4BC578047944EA05242501B3F9D7
:20394C000270447990F800C045EA24151C88EE10A6EB4406C4EB251464432513B3F9044048
:20396C0077436C43A41304EBE724877804EB840580352E12457845EA0C20B3F90A500E6029
:20398C00000140EA271E6010A0F57A40811049434C136C43B3F9085045436D1005EBE405DF
:2039AC004FF4004404EBA544DD886543EF1331D09C46BCF90E40BCF91030BCF90C50164E3D
:2039CC00C91260434B4340F63544290403EB400301EBA30104FB1E65081304FB1050C10F66
:2039EC0019BFB0FBF7F040004000B0FBF7F0BCF91410BCF91650BCF91240C30886085B434D
:203A0C0071435B0B49136B4301EB2331641800EB24101060F8BDC046000050C3043B0020FE
:203A2C00F8B507F091F8314C256805F00C000C2855D0E8082ED22E480068EFF3118780F32E
:203A4C0011882C4EB068002107F0E4F97169B269091A8A4238BF002187F311882648006855
:203A6C00884217D22548264A264D036812682868B3FBF2F22018891A07F0C8F928682018D5
:203A8C0007F0C0F90120FDF781FF2868201807F0B5F925E0280922D21B48690939BF016808
:203AAC0021F00101016841F0010102460160D2F898004FF0805440F00300C2F89800D4F8DC
:203ACC00B8018069014620208847D4F8B8010F4C806B2168804701202060206800E030BFCF
:203AEC0007F038F802F0A6FEF8BDC046201E002088B500007801002080B5000084B50000A0
:203B0C008CB5000070B500008C2108402C200940F8B5064635480068B468756840680146E3
:203B2C0020688847226801210835C2F81C1868B12B78FF2B0AD0FF214009297051D2042042
:203B4C00C2F80408022007F0C3F84AE02878002847D0401E13D0401E02D0FD3844D03DE0DF
:203B6C00D2F80828A86E0270A86E401CA866EF6E7F1EEF6619D0012F88BF092127E06F6E7A
:203B8C007F1E6F6613D1EF6E7FB10220E96D28702268097C012F4FEA410141F00101C2F87F
:203BAC00001894BF03210B2113E004210DE0286E22680078C2F80808286E022F00F101001E
:203BCC00286604D2EF6E17B905210020287022680220C2F8041807F07BF8F8BDFF20287012
:203BEC00F8BD304603F020FCF8BDC046AC010010F0B50C460746ADF11C0D07F09BF810B1B1
:203C0C00684604F095FAE179A0792F4D002600EB01206E808010A880E079A17901EB002120
:203C2C008A10201D694606F07BF9211D00283AD1A968384606F07EFE400831D338461B2110
:203C4C000822334606F05AF9059048B305F1180009212A4606F07AFB08224189ADF81220FE
:203C6C00059CADF810109DF800002070BDF800100598091241709DF802108170BDF8022010
:203C8C0001AD1212C2702968031D32463846196004A906F0F3FA18B104A81B2106F064FB5E
:203CAC0006F07CFD0EE0084606F01AFD6861000BE88006F077FE204604F01CFC3846314632
:203CCC0002F0B8FE07B0F0BD3C190020F8B5064606F0D2FD00284FD00120682102F0BCF802
:203CEC0000284BD02E4D09202C1D0122207021466B2005F0A9FF00283ED0072028712146E9
:203D0C0001226C2005F0A0FF002835D001271D2021462F713A4605F097FF00282CD040202C
:203D2C00287121463A46382005F08EFF20B3C020287121463A46692005F086FFE0B12E71B7
:203D4C001F2021463A4605F07FFFA8B10620287121463A461E2005F077FF68B1292028711B
:203D6C0021463A466B2005F06FFF28B1E91C1C203A4605F069FF18B906F0F8FE0020F8BDD9
:203D8C003A2021463A4606F0B6FC06F0EFFE002129706869034905F077FB3846F8BDC046D4
:203DAC004C2100200700068031482DE9F04F08214FF0010BADF1140DADF804100068ADF816
:203DCC0006B0014601A888472D4DBDF8080068800398A86003F030F905F10C0006F0FCFA96
:203DEC004FF47A764FF000090422AE80484685F80090014606F006FC29785846024606F091
:203E0C0001FC06F092FF022064215A4606F0FAFB4FF0FF3105F1100001F0FCF815491648CA
:203E2C00164F0C68B0460646B0FBF4FA1AE0584604F000FC504607F039F80DF102006946CD
:203E4C0001F034FC484604F0F5FB484604216A4602F020FCA88808FB00F0801BB0FBF4F005
:203E6C0007F024F828780128E1D0B7FBF4F0F7E7941700208CB500003832040040420F002A
:203E8C00E01200202DE9F04105462E480068EFF3118880F311882C4A505D411C00285155BF
:203EAC0049D12A4CA900675C07F03F003F280C4401D0FFF7E7FF607800F03F003F2801D021
:203ECC00FFF7E0FF668837F07F0019D1F80911D24FF08054D4F8B8014069014630468847D2
:203EEC0004F5DC742068406B0146304688470128F8D120E0164850F82610012088471AE0F6
:203F0C004FF08054D4F8B801C069014630468847D4F8B801406A014630468847D4F8B80108
:203F2C00C06A01463046884701210A4A0A48116001688908FCD388F31188284605F0A2FFA5
:203F4C00BDE8F08188B500007C1800202CB00000941800202820086028200840F8B5334D39
:203F6C002F49686905F090FAFF20A87000242C7068216C70012001F06FFF002808BF271C5F
:203F8C004CD02C4680200122211D20716B2005F05BFE06F0EBFD234923480D68B0FBF5F062
:203FAC0006F084FF03F02EF9261D071C36D0022003F0EAFC06F060FC60B304F0D3F958B3CB
:203FCC0001200C2101F048FF30B30F203070314601220A2005F038FE42F21070B0FBF5F06A
:203FEC0006F064FF04F10E011020032206F083FB04F10E0140B10878803020814878803059
:20400C00608188788030A08101220B203146227105F01AFE06F0AAFD04F0ECFA3846F8BDD3
:20402C00070000808CB50000A08601004C2100202DE9FF4782460D460CAF287A3F8899467E
:20404C001446800928BF082055D2084602A905F011FE012808BF01204DD0BDF80800DFF87C
:20406C009C8042F60211FF26401A2ED048F26311401A012827D827BBB9F1010F1FD1BDF8DF
:20408C0008104AF666200027884202D12178032913DA2178EA681170BDF80810884205D0E8
:2040AC00E968404688421AD13E461AE0E9684046401C884213D1012613E080270FE00D2725
:2040CC000DE00B270BE00A2709E000970121224650464B460191294603F0DAFA0746FF2E26
:2040EC0008D04046001D006820B1006810B101463046884738460090BDE8FF87001F0020D3
:20410C002DE9FE4F82460D460CAF287A3C8898469146800928BF082056D2084602A905F091
:20412C00A9FD012808BF01204ED0BDF80800DFF89CB042F602110026FF27401A2ED048F295
:20414C003F11401A34D0401E14D0801E24D10CBBB8F1010F1CD199F800000A2808DBE9686C
:20416C000870E9685C46601C884221D1022721E080261DE074B9B8F1010F09D199F8000072
:20418C00E9680870E9685C468C4211D1012711E00D260DE00B260BE00A2609E00094012183
:2041AC004A46504643460191294603F071FA0646FF2F08D05846001D006820B1006810B176
:2041CC000146384688473046BDE8FE8FD41B00202DE9FE4F82460D460CAF287A3C8898460B
:2041EC009146800928BF082056D2084602A905F041FD012808BF01204ED0BDF80800DFF82D
:20420C009CB042F602110026FF27401A2ED048F21F11401A34D0401E14D0401E24D10CBB33
:20422C00B8F1010F1CD199F800000A2808DBE9680870E9685C46601C884221D1022721E008
:20424C0080261DE074B9B8F1010F09D199F80000E9680870E9685C468C4211D1012711E0D9
:20426C000D260DE00B260BE00A2609E0009401214A46504643460191294603F009FA064635
:20428C00FF2F08D05846001D006820B1006810B10146384688473046BDE8FE8F6C1C00200B
:2042AC002DE9FE4F82460D460CAF287A3C8898469146800928BF082056D2084602A905F0F0
:2042CC00D9FC012808BF01204ED0BDF80800DFF89CB042F602110026FF27401A2ED048F2C5
:2042EC00FF01401A34D0401E14D0401E24D10CBBB8F1010F1CD199F800001E2808DBE96847
:20430C000870E9685C46601C884221D1022721E080261DE074B9B8F1010F09D199F80000D0
:20432C00E9680870E9685C468C4211D1012711E00D260DE00B260BE00A2609E000940121E1
:20434C004A46504643460191294603F0A1F90646FF2F08D05846001D006820B1006810B1A5
:20436C000146384688473046BDE8FE8F001D00202DE9FE4F82460D460CAF287A3C8898463B
:20438C009146800928BF082056D2084602A905F071FC012808BF01204ED0BDF80800DFF85C
:2043AC009CB042F602110026FF27401A2ED048F27F11401A34D0401E13D0401E24D10CBB33
:2043CC00B8F1010F1CD199F800000A2807DBE9680870E9685C468C4222D1022722E0802638
:2043EC001EE07CB9B8F1020F0AD1E868494609880180E9685C46601C884211D1012711E0C4
:20440C000D260DE00B260BE00A2609E0009401214A46504643460191294603F039F9064664
:20442C00FF2F08D05846001D006820B1006810B10146384688473046BDE8FE8F901A002047
:20444C002DE9FE4F82460D460CAF287A3C8898469146800928BF082056D2084602A905F04E
:20446C0009FC012808BF01204ED0BDF80800DFF89CB042F602110026FF27401A2ED048F2F3
:20448C006F11401A34D0401E14D0401E24D10CBBB8F1010F1CD199F800000A2808DBE96839
:2044AC000870E9685C46601C884221D1022721E080261DE074B9B8F1010F09D199F800002F
:2044CC00E9680870E9685C468C4211D1012711E00D260DE00B260BE00A2609E00094012140
:2044EC004A46504643460191294603F0D1F80646FF2F08D05846001D006820B1006810B1D5
:20450C000146384688473046BDE8FE8F941D00202D492DE9F0410968EFF3118881F31188CC
:20452C002A4B195C4A1E01291A5449D12849800045180E5C6F8836F07F0019D1F00911D251
:20454C004FF08054D4F8B801806901463846884704F5DC742068406B014638468847022800
:20456C00F8D120E01D4850F82710002088471AE04FF08054D4F8B801006A01463846884703
:20458C00D4F8B801806A014638468847D4F8B801006B01463846884701210E4A0E48116047
:2045AC0001688908FCD306F03F003F2801D0FFF7AFFF687800F03F003F2801D0FFF7A8FF31
:2045CC0088F31188BDE8F08188B500007C1800202CB00000282008602820084094180020CC
:2045EC00BCB5074606F048F900285AD02E4C207840BB3FB306F040F910B30120682101F0DC
:20460C002BFCF8B10920211D207101226B2005F01BFB251DA0B13F202870294601226C2065
:20462C0005F012FB0021217050B1E11C1C20012205F00AFB20B13A202946012206F05BF85D
:20464C0006F094FAF8B2277040B380F0FF0020716821012001F000FC28B3211D6C20012237
:20466C0005F0F2FA06F082FA247806F005F9C4F38014B0B103F076FEA8B101200C2101F0A0
:20468C00EBFB80B1002C0CBF00201120694601228DF800000A2005F0D7FA02E003F0AAFFEA
:2046AC00BCBD06F063FABCBD4C2100202DE9F04782460E467068DAF80810DAF804500024A7
:2046CC0001F1040810B9F06800284ED0287801280FD106F0B7FBA96F39B1E96F8E61EE677A
:2046EC0006F0ACFB0120BDE8F087AE67EE6706F0A5FB06F0A7FB1E4F81463878012804D05B
:20470C00042004F019FD01203870484606F096FB05F12C094FF0FF31484606F08BFBD8F80D
:20472C00000006F067FB5046314601F0ABFED8F8000006F05BFB287898B905F148004FF0E4
:20474C00FF3106F077FB06F07DFB0646387818B1042004F069FA3C70304606F06FFB287AE3
:20476C0000B90124484606F059FB2046BDE8F087593B0020F0B54FF4F0204FF48051ADF197
:20478C00140D02F0E3FA2A4D4FF4F0201021AA1C01F088FC4FF4F83004216A4603F099F922
:2047AC000098B0F1FF3F2CD04FF0805606F5EC7420681E4F006801210A4603463846984795
:2047CC00D6F8D801406801210246384690474FF4F83005F080FD4FF4F8363046102101AA1F
:2047EC0003F077F938B101A83146102205F064FD1036700CF1D0206840680021024638461F
:20480C0090474FF4F8300068B0F1FF3F0CD0E88929898000890002468B18A3F5F833002B22
:20482C00C8BFC91A034B984705B0F0BD004003400023002001F001001CB52D4C401E02D041
:20484C00401E44D01CBD06F0AFF9400931D32089FF2831D00120694604F0E6FABDF80000EC
:20486C0010F07F0F18D0BDF800002081022001F0ADFF06F001F8A8B11E48006841F288319F
:20488C00B1FBF0F006F012FB04F092F9BDF8001041EA0020208105E0BDF8000020810020F2
:2048AC0001F094FF04F108020120022101F0C0FB07E0FF20083420800120FF21022205F03D
:2048CC0089FC00201222014605F084FC1CBD02200DF1020104F0A8FA9DF80200410001EBE1
:2048EC00C001E18004F1280002F0FAFF1CBDC046B81F00208CB5000070B52C4E2C4D01282A
:20490C0006D068BB31460020491C05F013FC27E03146012005F00EFC34462078022817D0D1
:20492C00621C0020012102F033FF28680A21002204F0B2FA28680F21002204F0ADFA6068C5
:20494C0006F05CFA28681521002204F0A5FA07E006F02AF9621C60700121002002F018FFEB
:20496C0031460878012820D1344628686178490834BF002201220A2104F08EFA286861789E
:20498C00890834BF002201220F2104F085FA61786068C90807D206F031FA2868152100224B
:2049AC0004F07AFA70BD06F02DFA70BD802100202C05002038B52D4C054600206908A4F123
:2049CC000104207009D300F0B7FC002808BF207803D0207840F001002070A90809D301F086
:2049EC005CFF002808BF207803D0207840F002002070290909D300F0EDFC002808BF20782E
:204A0C0003D0207840F008002070E90809D303F0C8F9002808BF207803D0207840F00400B0
:204A2C002070690909D302F0EDFB002808BF207803D0207840F010002070A90909D303F06F
:204A4C00B9FD002808BF207803D0207840F020002070E90909D305F03EFF002808BF20783B
:204A6C0003D0207840F04000207038BDC13A0020F8B50D46EEB2290824BF27494D40274B8C
:204A8C00B400DFF89CC0195900EA05020CEA020200F4E02C85EA0107BCF5E02F00EA070797
:204AAC0021EA0001C7F3006742EA010201D1510E14D300F4E0210F4310D002F4E027B7F5A6
:204ACC00A02707D0B7F5803704BF22F4003242F4A02203E022F4803242F4C0221A51114C3B
:204AEC00C10D04D3C5F38052A4F180018A55000E11D306F0A7F9290E03D201220021B240BC
:204B0C0002E00122B24011465034236893431943216006F093F9F8BD006000A000100840EA
:204B2C00007F077F802002402DE9FE4F82460D460CAF287A3C8898469146800928BF082096
:204B4C0049D2084602A905F095F8012808BF012041D0BDF80800DFF884B042F60211002658
:204B6C00FF27401A22D04AF2C031401A0BD0401E1AD1BCB9B8F1010F12D199F80000E96819
:204B8C00022708701EE06CB9B8F1080F08D149460A6858460E30496802600127416011E002
:204BAC000D260DE00B260BE00A2609E0009401214A46504643460191294602F069FD06468A
:204BCC00FF2F07D05846006820B1006810B10146384688473046BDE8FE8FC046381B00200F
:204BEC0029482DE9F04308210125ADF1140DADF804100068ADF80650014601A88847254C95
:204C0C00BDF8080060800398A06002F08BF904F10C0005F0B7FB40F6F610A08005F092F956
:204C2C000220FF212A4605F0D5FC04F047FE4FF0FF3104F1100000F0EDF91448144F056841
:204C4C0043F698264FF47A78B6FBF5F916E005F0C1F9484606F02AF90DF10201684603F08F
:204C6C0051F8002004216A4601F0ACFCA08808FB00F0801BB0FBF5F006F018F92078012843
:204C8C00E5D0B7FBF5F0F7E7941700208CB50000F0E826002810002070B52B4C227860786E
:204CAC0082424BD000200121224603F043FC244D2878022802D1207802F0D2FA6378227854
:204CCC00204E980819D3900817D22878062810D1E56820693168401B4FF47A75414340F6E8
:204CEC00B830B1FBF5F1884207DA41F27070884203DD02F075FC2278637803F003000328CD
:204D0C001CD102F00300032818D030682569E16853409B083CBF6168A5684FF47A736D1A65
:204D2C00684341F27071B0FBF3F0814206DA15200A2103F0A9F805F02DFA2278627070BDCE
:204D4C00210500208CB50000EC2200202B482DE9F8430D469C4608AF91466968BC883E8830
:204D6C004B78027809784FF0000842F6232701EB0321C91B674628D0491E052917D9891FDA
:204D8C000CD0263933D1072E2ED8C6F10701A14298BF8CB23618083631461FE0B24223DB62
:204DAC00921BA242D8BF94B23C8040680BE0E86805F058FD80B2B04216DB801BA042D8BF67
:204DCC0084B23C80E868311809E0082E0CD8C6F10801A14298BF8CB231180F313C8048462E
:204DEC00224600F05BFA06E04FF0070803E040464FF00A0838804046BDE8F883A4150020D5
:204E0C0041F21C3010B5C5F200000468B4F1FF3F08BF002405F008FD40F2844346F25C01C9
:204E2C00002242F2082E012040F2801CC4F26023C4F20C011A60C4F2043E0860C4F2283CFB
:204E4C00CEF80000DCF8000038B140F20010C4F2203000682046FBF7ABFE44F20402C4F220
:204E6C0003021068052142F24803C2F20001C4F2030320F003000143116019684FF0000EFD
:204E8C00C0F2391E6FF35B414EEA01000421C4F2090118600868C0F30130012809D10A68A0
:204EAC004FF6FF70CFF6FC40104040F400320A60086010BD2DE9F04F09AFADF11C0D924630
:204ECC0006903C880493D7F80880059197F80490039430B1081C04D0181C18BFB8F1000F92
:204EEC0001D1022038E01E4801780026354630E0069C04EB8504B4F800B04FF6FF70584543
:204F0C0023D0A7780FB303990498059A05F01EFA0290D0B178080AD3CDF80090CDF80480BF
:204F2C00029B01215846524600F0DEFE0643A07880080AD3CDF80090CDF804802088029BFB
:204F4C005246022100F0D0FE0643054801786D1CEDB2A942CCDC304607B0BDE8F08FC046AB
:204F6C00E409002029482DE9F84FD0F80090EFF3118589F31188264CA068012105F04AFF8B
:204F8C004FF0010A4FF00008064621686769A4F81CA02068A4F81E80791A321A8A42A6EB79
:204FAC0007062DD385F311884546EF195046394605F018FF761B0546B542F6D9EFF3118BF3
:204FCC0089F31188E08B012804D14046394605F009FF0546B5F1FF3F06D0A169AD1BA94283
:204FEC0038BF0D1CE91901E0A5697919284605F0F5FEA4F820A0A4F81C805D46276001E00D
:20500C00A4F81C8085F31188BDE8F88F88B50000780100202DE9F84F0E46044605F03AFF10
:20502C00834625480068EFF3118A80F31188D4F808904E4533D01E481E4D0768002E06D4FB
:20504C00AF69012000FA06F807EBC60702E04FF000087F19207D012817D1204605F0BAFED2
:20506C00206C05F01FFF18B1E1686868884368602869844212BF381C6F613868214605F0C8
:20508C00A5FE686848EA00006860A660C4F80C802764002E44BF00206861012028818AF35D
:2050AC001188584605F0E2FE4846BDE8F88FC046E80500000001002088B50000F8B5264CAE
:2050CC002068EFF3118680F3118824491D4D0B680420B0FA80F043F00403281A1F300278EA
:2050EC000B60521C027086F311882068EFF3118380F311880A680820B0FA80F042F008024D
:20510C002D1AE87F0A60401CE87783F311880E20FEF7B8FE0C480068C0F38150032814BF8A
:20512C000020012009490A4A088017683FB9094C402020600123D36100204860F8BD012052
:20514C00F8BDC0468F180020B43F0050B822002004800C402C500C4088B50000201E002051
:20516C00F0B520480127F84201D002F071FF204D204F214EBD4206D203CD0478A4003459E2
:20518C00401CA047F6E71D48002800D08047164D164FBD4202D210CDA047FAE7F0BD0325AA
:2051AC001BE0416808300A1C2A400BD11A1C2A40AB4305D0046804300C600431043BF9D1EE
:2051CC00131C05D0047801300C700131013BF9D1021C2A4001D0A84304300368002BE0D19F
:2051EC007047C046FFFFFFFF000000000000000060C10000E8C10000E0C0000059C5011051
:20520C00F0B50446234DA7682868ADF12C0D67BB0C2000F0E9FB071C1ED068460021242265
:20522C00082305F0CFFD002306976A466168ADF810301948059305F0C1FD386078B90821BA
:20524C000C22ADF82410A869ADF82620014609A88847384604F05EFC6FF0030018E0E0680A
:20526C0078602069B860A7600AE080470646386805F0C4FD2069B860686801463046884752
:20528C003868616805F0C2FD386805F0BBFD00200BB0F0BD7C1700202FAC0000002A4AD03E
:2052AC005FEA000C8B071CD1830722D1102A08D370B4103A78C978C0103AFBD270BC103210
:2052CC0038D0042A2CD3082A05D30C2A24BF08C908C008C908C008C908C092072AD0920F6B
:2052EC0022E00B780370491C401C521E22D08B07F7D1C30714D18307D8D0121F12D308C965
:20530C0003801B0C4380001D121FF8D20AE008C903701B0A43701B0A83701B0AC370001D69
:20532C00121FF4D2121D05D00B780370491C401C521EF9D16046704710B50020442100F0DE
:20534C008BFD002808BF002440D0214C1F200222214605F0D0F9002835D021880806000CB1
:20536C0040EA2120782815D11020208021460220024604F069FC30B302202146024605F08D
:20538C00BAF900B321880806000C40EA2120B0F5805F01D0208016E0002020802146022039
:2053AC00024604F051FC70B102202146024605F0A2F940B121880806000C50EA2120208007
:2053CC0008BF012400D0002405F0D0FB204610BD483B00201CB50020772100F03DFD002870
:2053EC0008BF00243FD0D0206946012205F083F9002835D09DF80000582831D1F52069466C
:20540C00012205F078F900282AD09DF8000038BB55208DF8000069460122F42004F014FC69
:20542C00F0B1F4206946012205F065F9C0B19DF80000552814D1B6208DF8000069460122F1
:20544C00E02004F001FC58B1F4206946012205F052F928B19DF80000002808BF012400D0CE
:20546C00002405F083FB20461CBDF8B5064604F091FC43F61C35C2F200056F68044604F078
:20548C00F1FA2A69E41B4FF47A716143090C801A48BF404240F6B83289198A4216D30628D4
:2054AC0014DAA968E868814210D82A6872B1401A44F24021C0F20F014143080C00EB91402A
:2054CC00824212D91046C82811D312E043F6AC71C5F200014868400828BF4FF4FA600DD28C
:2054EC0009687D2001F0FF014843C82801D2C820F8BDB0F57A6F88BF4FF47A60F8BD704758
:20550C001CB5234C401E02D0401E31D01CBD05F04BFBC00824D32078FF2823D0012069465B
:20552C0004F00CF99DF80010207869B9A0B104F1080005F003FC002004F07DFA00200222F6
:20554C00014605F053F807E030B9012004F073FA04F1080005F0F0FB9DF8000020701CBD8B
:20556C00FF2020700120FF21024605F03FF81CBD0220694604F0E2F89DF80000410001EB81
:20558C00C001618004F1080002F0AAF91CBDC046702200202DE9F843204E0F4604464FF09D
:2055AC00FF3106F12405284605F044FCA946002000E0401C6FB117F82010FF2909D03268A7
:2055CC008A4204D906EB8101096E0029F1D000241CE0002020604FF0010860600546A0602F
:2055EC000EE00878636808FA00F01843606006EB82030A6808491C66204604F0B7F86D1C0C
:20560C0027B107EB85010A78FF2AEAD1484605F005FC2046BDE8F883007FC7675038002069
:20562C00401E1CB502D0401E2ED01CBD05F0BCFA1C4C00091DD32078FF281CD001206946A1
:20564C0003F004FE9DF8000030B19DF80000012816D10121217007E0002006222070014675
:20566C0004F0ACFF4FF0FF3104F11000FFF7D2FC06E0FF2020700120FF21024604F09EFF98
:20568C00002004F0D7FB1CBD0220694603F0DEFD9DF8002004495000091D00EBC2000880F3
:2056AC001CBDC046700D0020700D00202DE9F04105460E460020442100F0CEFB002808BFB2
:2056CC00002035D01B4C04200222214605F013F85FEA000822D021880806000C40EA212012
:2056EC00C0F380382080C00B18D3A11C0120022205F001F8A71C5FEA00080FD0B91C032002
:20570C00022204F0F8FF80463A78B978FB78787840EA0220288043EA0123338005F026FA55
:20572C00B8F1010F03D0A01C042105F0DDF84046BDE8F081483B002038B5042004F0CAFB1D
:20574C001A4C022818BF03281FD103200090164800214FF040521C2301F0C5FF17480068FD
:20576C00EFF3118380F3118815480421B1FA81F1401AC17F4A1E0129C27703D1206820F02B
:20578C000400206083F3118838BD094D0A48094A296803686018B2FBF3F105F037FB2868BE
:2057AC00201805F02FFB38BD00A00C40201E002074B50000A08601008CB5000088B5000079
:2057CC008F18002010B51A481A490078086820F0030040F00100086002F0CCFF01F07CFEB0
:2057EC000021154C154821600068C0680146022088471349134A086820F00100086010685B
:20580C00D4F8EC1FEFF3118480F311880E4B0F481A680421B1FA81F1401A42F00402C17FDC
:20582C001A60491CC17784F311884FF0FF3010BD583B00200440034040100940A001001076
:20584C008C21084088B50000201E00208F1800202DE9F0411E4987684668086804F04AFDEF
:20586C0038680024C0F810483968C1F80448D1F8200820F01000C1F8200805F0E3FA154D7C
:20588C008046287818B1042003F0CEF92C70404605F0D4FA387AFEF73BFE06F1100005F02E
:2058AC0089FA06F12C0005F081FA307818B906F1480005F07BFA06F1840004F0D3FD05F070
:2058CC00C1FA86F8984005F0B9FABDE8F081C046303B0020593B0020F8B50E46307A1D469A
:2058EC00144606AF400928BF082036D23888002818BF0B2031D10846694604F0BBF9012873
:20590C0003D1002101202980F8BDBDF800004AF601410027401A15D0401E0BD0401E03D000
:20592C0038460A27288017E002202880F0680088208011E005202880F0680168216000794A
:20594C00207109E001F0BAFC04480C3002782A80F1682046FFF7A2FC3846F8BDE8190020C7
:20596C00F8B505461E480068EFF3118780F311881C4C20684FF0805640F080002060D6F8CC
:20598C008C014068014601208847D6F8B001006A014614208847286906F5C675810C14BF35
:2059AC00010C04212868406A024601209047D6F88401006823210246002090472868C06938
:2059CC00014601208847206820F4C02040F480302060206840F00100206087F31188F8BDA3
:2059EC0088B5000000200940F8B5001D84B214F0030002D0241A241DA4B204F0D1FC01463F
:205A0C001948102C47680160C8BF8768388800221646C30BDD0319D126B984420ADD3A4675
:205A2C00012617E01388C3189BB29C42138011DC174618469FB1001B80B20428B4BF3C8860
:205A4C00385344F400443C803F1D08E080F40040002680B2C71938880028DAD1002708463F
:205A6C0004F028FE3846F8BD84170020401E1CB502D0401E2BD01CBD05F096F81A4C4008AE
:205A8C001AD32078FF2819D00120694603F03EFE9DF8000038B900200422014604F0B2FDB0
:205AAC004FF0FF3100E0012104F11000FFF7B2FA9DF80000207006E0FF2020700120FF21C7
:205ACC00024604F09FFD002002F0B4FD1CBD0220694603F01BFE9DF8002004495000091DF1
:205AEC0000EBC20008801CBDE0120020E0120020401E1CB502D0401E28D01CBD05F054F8F7
:205B0C00194C80081AD32078FF2819D00120694603F06CFD9DF8000038B9002004220146B8
:205B2C0004F058FD4FF0FF3100E0012104F11000FFF770FA9DF8000020701CBDFF2020708D
:205B4C000120FF21024604F045FD1CBD0220694603F04CFD9DF8002004495000091D00EB31
:205B6C00C20008801CBDC04628100020281000202DE9FE4305460E46307890460AAF0228E9
:205B8C001AD01949DFF8649070680C681022494604F08EFA0027494610B914B3012007E00B
:205BAC0070681031102204F083FA70B9CCB1022029464246A04714E070684278007842F641
:205BCC00021100EB0220814201D00A2709E0398801200091424601903146284601F058FD34
:205BEC0007463846BDE8FE834C19002094B2000041F2A00010B5C5F20000D0F878120368D1
:205C0C000A0F03F0FF03802B28BF0023D0F878024BF69A11C0F30F344FF0FF30A14213D05D
:205C2C002431A14207D04BF62031A1421DD1E2B90A3358B210BD12B1921E02D010BD0A20FB
:205C4C0010BD143358B210BD521E0DD0921E04D0121F04D0521E04D010BD142010BD152030
:205C6C0010BD163358B210BD0A2010BD2DE9F043ADF13C0D05F00EF9184D1A4C0026804651
:205C8C002D1F183C684600213C22082305F08AF855F8041F6068A768069023680897002260
:205CAC0005910F480493694605F078F8071C10D004F076FB8146384601F062F948B14846C0
:205CCC0004F0F8FC241D761CDCD0404605F0CEF801E002F027FB0FB0BDE8F0837817002095
:205CEC0091A90000D8AE00002DE9F0430E4691461D4607AF80461B214FF6FF72ADF11C0DCC
:205D0C0003AB04F0FBF8059038B300210091BDF80C100191FF2402947C6802460DF1120355
:205D2C0040462946A047041C12D16889ADF81000700805D340464A4604A904F09FFA05E04D
:205D4C003B7840464A4604A904F0D2FE041C05D004A81B2104F008FB00E01524204607B0F3
:205D6C00BDE8F083002213460A46194671B510F0030F0BD0002A82BF00F8011BB2F101029D
:205D8C0010F0030FF6D1002A08BF71BD11F0FF0141EA0121042A18D341EA0141082A0FD317
:205DAC000E46102A08D30C460D46B2F10F0312F00F0272C0103BFCD812F0080F18BF42C0BE
:205DCC0012F0040F18BF40F8041B12F0020F18BF20F8021B12F0010F18BF017071BDFEE7E8
:205DEC00F8B5144686684268084602F10C05203827D0401E21D0401E1CD123781549906EC6
:205E0C00194300F07BFE90B93068B0F1804F14BF23220B222178E86D03F0D0FFE86D95F889
:205E2C004D1001F0DFFC207885F84D0010E04FF0FF30F8BD6FF00100F8BD002085F86400A2
:205E4C00F8BD29780020012908BF012085F864000020F8BD002000802DE9F8438046894672
:205E6C001648194C144A016804F11400B2FBF1F104F0E0FF00284946404608BF002018D015
:205E8C00124A0F4D11702978814211D02870206804F0B8FE261D304604F054FD2878314699
:205EAC00012804BF07482061002004F003FB20600120BDE8F883C046A02526008CB5000015
:205ECC005A3B0020AEB30000903A00205D3B0020F8B50E46307A1D46144606AF400928BFB1
:205EEC00082030D23888002818BF0B202BD10846694603F0BFFE012803D1002101202980F1
:205F0C00F8BDBDF800004AF681210027401A13D0401E0BD0401E03D038460A27288011E013
:205F2C0001202880F068007820700BE002202880F0680088208005E012222A80F168204675
:205F4C00FFF7ACF93846F8BD1FB5194B0C4601461046002289B1491E06D0491E23D1012C1F
:205F6C000DD1007818701FE0082C08D1124903680E310B604068486016E0062C01D0182238
:205F8C0012E0046803F10C010C608088888008240094FF240194074C029498681C33FEF775
:205FAC0089FF024600E00222104600901FBDC046341B002041790000381B002070B506462C
:205FCC00F088F5680B28A5F108052CDAB0880B2829DA04F0E5F9154CF28891000C3401EB2C
:205FEC00C20161184968E1B104F064FB30792870B0796870307AA870F188880000EBC10012
:20600C002018F1684068083003F0BCF9F188880000EBC10024186068406804F0FFFE0020F1
:20602C0070BD04F047FB6FF0020070BDEC1700207FB5194C0B46002511461A4678B1401EF3
:20604C0006D0401E24D1012A0BD10878207020E0022A06D112480988401C018019E0122AF4
:20606C0001D0182515E004F10C0612223046FFF715F908200090FF230193084A0292A06800
:20608C00314604F120032A46FEF714FF054600E00225284600907FBD901A0020DD5E00005C
:2060AC00901A00202DE9FC414FF0020816460F46054602E004F09EFCA619002F08BF01202C
:2060CC0028D001F079FF20BB03F0B0FB08BB05F0FF04C4F58074BC4288BF3C1C8DF80080D0
:2060EC008DF80350280C8DF80100280A8DF8020004F088FC6846042103F080FB3F1B6519B8
:20610C0028B93046214603F079FB0028D2D004F071FC0020BDE8FC8170B50021242208232A
:20612C00ADF1280D684604F09DFE134C01256A4629468DF8185004F1140004F08FFE0F48D1
:20614C00006801464FF44070884702F0E1FD261D304604F0F7FB00203146257304F0AAF98D
:20616C00074BFF221A700749206000220A7008B904F010FE0AB070BD903A0020780000108E
:20618C005D3B00205A3B0020F8B50E46307A1D46144606AF400928BF08202CD2388800282B
:2061AC0018BF0B2027D10846694603F063FD012803D1002101202980F8BDBDF800004AF6F7
:2061CC004121401A4FF000010DD0401E05D0801E03D008460A2128800CE001202880F06808
:2061EC000078207006E006202880F068026822608088A0800846F8BD10B54AF2000434210E
:20620C004FF080521C23C4F20C04204602F030F9012826D0204634210122002302F028F9A8
:20622C00002808BF00201DD08020C1F200000068804703F0AFFD43F61C3344F24022C2F261
:20624C000003C0F20F029C681968D860041BA1EB91016243120C8A4224BF1A60012001D292
:20626C001960012010BDFEE71FB5174B0C4601461046002269B1491E08D0491E1FD1012CA2
:20628C0009D1134B5B1C0078187019E0012C02D1F9E7062C01D0182212E0046803F10C01CE
:2062AC000C608088888008240094FF240194074C029498681433FEF7FDFD024600E0022273
:2062CC00104600901FBDC046D41B002095610000D41B002038B50079184CA0B904F060F867
:2062EC002178002904BF6FF00704051C13D0491EC9B2217029B904F0DDF9606802F054FF73
:20630C0018E0054613E004F04BF805462078FF2805D16FF00604284604F0CCF90BE0401C4D
:20632C00C0B20128207002D1606802F058FF284604F0C0F90024204638BDC046202300203F
:20634C0000B540F21630ADF1140D6946FCF710FC40F213300DF10201FCF70AFC4FF446702F
:20636C0001A9FCF705FC9DF800109DF80220BDF800009DF804308DF80610BDF802108DF8B2
:20638C00082002128DF80A3009128DF80720BDF804008DF8091000120DF1060206218DF814
:2063AC000B000020FFF7D0FD05B000BDFEB5194C0546208C218B81420CDC618B814209DB78
:2063CC00A08B618C884205D1E08BA18C884208BF18271DD0052002F00BFA278B638BADF843
:2063EC000270A28BADF80430E18BADF806200646ADF80810E08AADF80000684604F092FA9C
:20640C00071C05D104F1F0003146A57302F098FD3846FEBDE4090020F8B500B21D46164618
:20642C000F4603F0F1FA0FA494E80C00FDF708F90EA20CCAFDF704F90EA20CCAFBF764FE9C
:20644C0001F02CFE3060384603F0D4FE94E80C00FDF7F6F809A20CCAFDF7F2F801F01EFE6C
:20646C002860F8BD000000000000F03E0000000000A06440000000000000444000000000DD
:20648C000000594098B54268806851660B68083213664B6853668B689366C968D166576E16
:2064AC0077B9D16D0B7C0168580040F00100C1F80008D36E0220022B107012D30B2211E015
:2064CC00D16D0368097C01274900C3F80018116E177004684B1C13660978C4F80818016826
:2064EC0002200322C1F8042804F0F2FB98BD2DE9F041054615F8017B90460E461CE0B8F144
:20650C00000F05F101050BD0FF2C09D8022015F8011B401E41EA0424F9D101E0042C02D3D1
:20652C0015F8011B00E0394630462246FFF71EFCA61901E006F8010B15F8010B8742F9D183
:20654C0015F8014B002CE9D115F8010B2C7800022418D4D1BDE8F08138B50546452100207C
:20656C00FFF77AFC002808BF002029D001206946022204F0C0F8041C1BD0BDF80000002417
:20658C00C013C003B0F5004F08BF0124B0F5004F0FD100206946022204F0ADF8041C08D021
:2065AC00BDF80000BDF80010000240EA2120288003E02846022104F097F904F0D7FA20461D
:2065CC0038BDFEE71FB5164B0C4601461046002269B1491E08D0491E1DD1012C09D1124B7D
:2065EC005B1C0078187017E0012C02D1F9E7042C01D0182210E0006803F10801086008241D
:20660C000094FF240194074C0294D8681033FEF751FC024600E00222104600901FBDC04660
:20662C006C1C00200D6900006C1C0020F8B5044604F0FCFB00F0A4FC054604F02BFC074663
:20664C0004F000FC0146A2881148BBB263F30F0689B261F31F466030002130F80C7F5FB92C
:20666C0002804560A181A7688760686800252061304604F01FF809E0974208BF6FF00205E9
:20668C00F6D0491C0B29E8D301F04CFE2846F8BD8C1700201FB5164B0C460146104600226D
:2066AC0069B1491E08D0491E1DD1012C09D1124B5B1C0078187017E0012C02D1F9E7042C3E
:2066CC0001D0182210E0006803F10801086008240094FF240194074C0294D8681033FEF70D
:2066EC00E9FB024600E00222104600901FBDC046001D002073690000001D00203EB5044603
:20670C001448042208230178ADF802201248ADF800308900006801910246684690470028D9
:20672C000CBF029900210E4D281D0029016008BF13200ED04FF6FF7002F0F0FD600838BFD2
:20674C00002006D3054B284605211022083001F039FA3EBDE409002094170020F8B4000043
:20676C00A41E00202DE9F041154D6C686079ADF1380DFDF787FB04F065FB2E688046307824
:20678C00B8B901A800213022082304F063FB0695002700970B4A2179301D01AB04F056FB5D
:2067AC00012030702168084ACF6221688A6021684860404604F042FB28460EB0BDE8F08163
:2067CC0028B500006BAC00000004002038B5174D041C09D100202870FDF702FF03F03EFB71
